{
  "_format": "hh-sol-artifact-1",
  "contractName": "LiquidityMining",
  "sourceName": "contracts/LiquidityMining.sol",
  "abi": [
    {
      "inputs": [
        {
          "internalType": "contract IERC20",
          "name": "_rewardToken",
          "type": "address"
        },
        {
          "internalType": "address",
          "name": "_reservoir",
          "type": "address"
        },
        {
          "internalType": "uint256",
          "name": "_rewardPerBlock",
          "type": "uint256"
        },
        {
          "internalType": "uint256",
          "name": "_startBlock",
          "type": "uint256"
        },
        {
          "internalType": "uint256",
          "name": "_endBlock",
          "type": "uint256"
        }
      ],
      "stateMutability": "nonpayable",
      "type": "constructor"
    },
    {
      "anonymous": false,
      "inputs": [
        {
          "indexed": true,
          "internalType": "address",
          "name": "user",
          "type": "address"
        },
        {
          "indexed": false,
          "internalType": "uint256",
          "name": "amount",
          "type": "uint256"
        }
      ],
      "name": "Claimed",
      "type": "event"
    },
    {
      "anonymous": false,
      "inputs": [
        {
          "indexed": true,
          "internalType": "address",
          "name": "user",
          "type": "address"
        },
        {
          "indexed": true,
          "internalType": "uint256",
          "name": "pid",
          "type": "uint256"
        },
        {
          "indexed": false,
          "internalType": "uint256",
          "name": "amount",
          "type": "uint256"
        }
      ],
      "name": "Deposited",
      "type": "event"
    },
    {
      "anonymous": false,
      "inputs": [
        {
          "indexed": true,
          "internalType": "address",
          "name": "user",
          "type": "address"
        },
        {
          "indexed": true,
          "internalType": "uint256",
          "name": "pid",
          "type": "uint256"
        },
        {
          "indexed": false,
          "internalType": "uint256",
          "name": "amount",
          "type": "uint256"
        }
      ],
      "name": "EmergencyWithdrawn",
      "type": "event"
    },
    {
      "anonymous": false,
      "inputs": [
        {
          "indexed": true,
          "internalType": "address",
          "name": "migrator",
          "type": "address"
        }
      ],
      "name": "MigratorSet",
      "type": "event"
    },
    {
      "anonymous": false,
      "inputs": [
        {
          "indexed": true,
          "internalType": "address",
          "name": "previousOwner",
          "type": "address"
        },
        {
          "indexed": true,
          "internalType": "address",
          "name": "newOwner",
          "type": "address"
        }
      ],
      "name": "OwnershipTransferred",
      "type": "event"
    },
    {
      "anonymous": false,
      "inputs": [
        {
          "indexed": false,
          "internalType": "uint256",
          "name": "rewardPerBlock",
          "type": "uint256"
        }
      ],
      "name": "RewardPerBlockSet",
      "type": "event"
    },
    {
      "anonymous": false,
      "inputs": [
        {
          "indexed": true,
          "internalType": "address",
          "name": "token",
          "type": "address"
        },
        {
          "indexed": true,
          "internalType": "uint256",
          "name": "pid",
          "type": "uint256"
        },
        {
          "indexed": false,
          "internalType": "uint256",
          "name": "allocPoint",
          "type": "uint256"
        }
      ],
      "name": "TokenAdded",
      "type": "event"
    },
    {
      "anonymous": false,
      "inputs": [
        {
          "indexed": true,
          "internalType": "address",
          "name": "oldtoken",
          "type": "address"
        },
        {
          "indexed": true,
          "internalType": "address",
          "name": "newToken",
          "type": "address"
        },
        {
          "indexed": true,
          "internalType": "uint256",
          "name": "pid",
          "type": "uint256"
        }
      ],
      "name": "TokenMigrated",
      "type": "event"
    },
    {
      "anonymous": false,
      "inputs": [
        {
          "indexed": true,
          "internalType": "address",
          "name": "token",
          "type": "address"
        },
        {
          "indexed": true,
          "internalType": "uint256",
          "name": "pid",
          "type": "uint256"
        },
        {
          "indexed": false,
          "internalType": "uint256",
          "name": "allocPoint",
          "type": "uint256"
        }
      ],
      "name": "TokenSet",
      "type": "event"
    },
    {
      "anonymous": false,
      "inputs": [
        {
          "indexed": true,
          "internalType": "address",
          "name": "user",
          "type": "address"
        },
        {
          "indexed": true,
          "internalType": "uint256",
          "name": "pid",
          "type": "uint256"
        },
        {
          "indexed": false,
          "internalType": "uint256",
          "name": "amount",
          "type": "uint256"
        }
      ],
      "name": "Withdrawn",
      "type": "event"
    },
    {
      "inputs": [
        {
          "internalType": "uint256",
          "name": "_allocPoint",
          "type": "uint256"
        },
        {
          "internalType": "contract IERC20",
          "name": "_token",
          "type": "address"
        },
        {
          "internalType": "bool",
          "name": "_withUpdate",
          "type": "bool"
        }
      ],
      "name": "add",
      "outputs": [],
      "stateMutability": "nonpayable",
      "type": "function"
    },
    {
      "inputs": [
        {
          "internalType": "uint256",
          "name": "reward",
          "type": "uint256"
        }
      ],
      "name": "calcUnlocked",
      "outputs": [
        {
          "internalType": "uint256",
          "name": "claimable",
          "type": "uint256"
        }
      ],
      "stateMutability": "view",
      "type": "function"
    },
    {
      "inputs": [],
      "name": "claim",
      "outputs": [],
      "stateMutability": "nonpayable",
      "type": "function"
    },
    {
      "inputs": [
        {
          "internalType": "address",
          "name": "",
          "type": "address"
        }
      ],
      "name": "claimedRewards",
      "outputs": [
        {
          "internalType": "uint256",
          "name": "",
          "type": "uint256"
        }
      ],
      "stateMutability": "view",
      "type": "function"
    },
    {
      "inputs": [
        {
          "internalType": "uint256",
          "name": "_pid",
          "type": "uint256"
        },
        {
          "internalType": "uint256",
          "name": "_amount",
          "type": "uint256"
        }
      ],
      "name": "deposit",
      "outputs": [],
      "stateMutability": "nonpayable",
      "type": "function"
    },
    {
      "inputs": [],
      "name": "endBlock",
      "outputs": [
        {
          "internalType": "uint256",
          "name": "",
          "type": "uint256"
        }
      ],
      "stateMutability": "view",
      "type": "function"
    },
    {
      "inputs": [],
      "name": "getAllPools",
      "outputs": [
        {
          "components": [
            {
              "internalType": "contract IERC20",
              "name": "token",
              "type": "address"
            },
            {
              "internalType": "uint256",
              "name": "accRewardPerShare",
              "type": "uint256"
            },
            {
              "internalType": "uint256",
              "name": "allocPoint",
              "type": "uint256"
            },
            {
              "internalType": "uint256",
              "name": "lastRewardBlock",
              "type": "uint256"
            }
          ],
          "internalType": "struct LiquidityMining.PoolInfo[]",
          "name": "",
          "type": "tuple[]"
        }
      ],
      "stateMutability": "view",
      "type": "function"
    },
    {
      "inputs": [],
      "name": "getAllUnlocks",
      "outputs": [
        {
          "components": [
            {
              "internalType": "uint256",
              "name": "block",
              "type": "uint256"
            },
            {
              "internalType": "uint256",
              "name": "quota",
              "type": "uint256"
            }
          ],
          "internalType": "struct LiquidityMining.UnlockInfo[]",
          "name": "",
          "type": "tuple[]"
        }
      ],
      "stateMutability": "view",
      "type": "function"
    },
    {
      "inputs": [
        {
          "internalType": "uint256",
          "name": "_pid",
          "type": "uint256"
        },
        {
          "internalType": "address",
          "name": "_user",
          "type": "address"
        }
      ],
      "name": "getPendingReward",
      "outputs": [
        {
          "internalType": "uint256",
          "name": "total",
          "type": "uint256"
        },
        {
          "internalType": "uint256",
          "name": "unlocked",
          "type": "uint256"
        }
      ],
      "stateMutability": "view",
      "type": "function"
    },
    {
      "inputs": [
        {
          "internalType": "contract IERC20",
          "name": "_token",
          "type": "address"
        }
      ],
      "name": "isTokenAdded",
      "outputs": [
        {
          "internalType": "bool",
          "name": "",
          "type": "bool"
        }
      ],
      "stateMutability": "view",
      "type": "function"
    },
    {
      "inputs": [],
      "name": "massUpdatePools",
      "outputs": [],
      "stateMutability": "nonpayable",
      "type": "function"
    },
    {
      "inputs": [
        {
          "internalType": "uint256",
          "name": "_pid",
          "type": "uint256"
        }
      ],
      "name": "migrate",
      "outputs": [],
      "stateMutability": "nonpayable",
      "type": "function"
    },
    {
      "inputs": [],
      "name": "migrator",
      "outputs": [
        {
          "internalType": "contract IMigrator",
          "name": "",
          "type": "address"
        }
      ],
      "stateMutability": "view",
      "type": "function"
    },
    {
      "inputs": [],
      "name": "owner",
      "outputs": [
        {
          "internalType": "address",
          "name": "",
          "type": "address"
        }
      ],
      "stateMutability": "view",
      "type": "function"
    },
    {
      "inputs": [],
      "name": "poolCount",
      "outputs": [
        {
          "internalType": "uint256",
          "name": "",
          "type": "uint256"
        }
      ],
      "stateMutability": "view",
      "type": "function"
    },
    {
      "inputs": [
        {
          "internalType": "uint256",
          "name": "",
          "type": "uint256"
        }
      ],
      "name": "poolInfo",
      "outputs": [
        {
          "internalType": "contract IERC20",
          "name": "token",
          "type": "address"
        },
        {
          "internalType": "uint256",
          "name": "accRewardPerShare",
          "type": "uint256"
        },
        {
          "internalType": "uint256",
          "name": "allocPoint",
          "type": "uint256"
        },
        {
          "internalType": "uint256",
          "name": "lastRewardBlock",
          "type": "uint256"
        }
      ],
      "stateMutability": "view",
      "type": "function"
    },
    {
      "inputs": [
        {
          "internalType": "address",
          "name": "",
          "type": "address"
        }
      ],
      "name": "poolPidByAddress",
      "outputs": [
        {
          "internalType": "uint256",
          "name": "",
          "type": "uint256"
        }
      ],
      "stateMutability": "view",
      "type": "function"
    },
    {
      "inputs": [
        {
          "internalType": "uint256",
          "name": "_pid",
          "type": "uint256"
        },
        {
          "internalType": "uint256",
          "name": "_allocPoint",
          "type": "uint256"
        },
        {
          "internalType": "bool",
          "name": "_withUpdate",
          "type": "bool"
        }
      ],
      "name": "reallocatePool",
      "outputs": [],
      "stateMutability": "nonpayable",
      "type": "function"
    },
    {
      "inputs": [],
      "name": "renounceOwnership",
      "outputs": [],
      "stateMutability": "nonpayable",
      "type": "function"
    },
    {
      "inputs": [],
      "name": "reservoir",
      "outputs": [
        {
          "internalType": "address",
          "name": "",
          "type": "address"
        }
      ],
      "stateMutability": "view",
      "type": "function"
    },
    {
      "inputs": [],
      "name": "rewardPerBlock",
      "outputs": [
        {
          "internalType": "uint256",
          "name": "",
          "type": "uint256"
        }
      ],
      "stateMutability": "view",
      "type": "function"
    },
    {
      "inputs": [],
      "name": "rewardToken",
      "outputs": [
        {
          "internalType": "contract IERC20",
          "name": "",
          "type": "address"
        }
      ],
      "stateMutability": "view",
      "type": "function"
    },
    {
      "inputs": [
        {
          "internalType": "address",
          "name": "",
          "type": "address"
        }
      ],
      "name": "rewards",
      "outputs": [
        {
          "internalType": "uint256",
          "name": "",
          "type": "uint256"
        }
      ],
      "stateMutability": "view",
      "type": "function"
    },
    {
      "inputs": [
        {
          "internalType": "contract IMigrator",
          "name": "_migrator",
          "type": "address"
        }
      ],
      "name": "setMigrator",
      "outputs": [],
      "stateMutability": "nonpayable",
      "type": "function"
    },
    {
      "inputs": [
        {
          "internalType": "uint256",
          "name": "_rewardPerBlock",
          "type": "uint256"
        }
      ],
      "name": "setRewardPerBlock",
      "outputs": [],
      "stateMutability": "nonpayable",
      "type": "function"
    },
    {
      "inputs": [
        {
          "internalType": "uint256[]",
          "name": "_blocks",
          "type": "uint256[]"
        },
        {
          "internalType": "uint256[]",
          "name": "_quotas",
          "type": "uint256[]"
        }
      ],
      "name": "setUnlocks",
      "outputs": [],
      "stateMutability": "nonpayable",
      "type": "function"
    },
    {
      "inputs": [],
      "name": "startBlock",
      "outputs": [
        {
          "internalType": "uint256",
          "name": "",
          "type": "uint256"
        }
      ],
      "stateMutability": "view",
      "type": "function"
    },
    {
      "inputs": [],
      "name": "totalAllocPoint",
      "outputs": [
        {
          "internalType": "uint256",
          "name": "",
          "type": "uint256"
        }
      ],
      "stateMutability": "view",
      "type": "function"
    },
    {
      "inputs": [
        {
          "internalType": "address",
          "name": "newOwner",
          "type": "address"
        }
      ],
      "name": "transferOwnership",
      "outputs": [],
      "stateMutability": "nonpayable",
      "type": "function"
    },
    {
      "inputs": [],
      "name": "unlockCount",
      "outputs": [
        {
          "internalType": "uint256",
          "name": "",
          "type": "uint256"
        }
      ],
      "stateMutability": "view",
      "type": "function"
    },
    {
      "inputs": [
        {
          "internalType": "uint256",
          "name": "",
          "type": "uint256"
        }
      ],
      "name": "unlocks",
      "outputs": [
        {
          "internalType": "uint256",
          "name": "block",
          "type": "uint256"
        },
        {
          "internalType": "uint256",
          "name": "quota",
          "type": "uint256"
        }
      ],
      "stateMutability": "view",
      "type": "function"
    },
    {
      "inputs": [],
      "name": "unlocksTotalQuotation",
      "outputs": [
        {
          "internalType": "uint256",
          "name": "",
          "type": "uint256"
        }
      ],
      "stateMutability": "view",
      "type": "function"
    },
    {
      "inputs": [
        {
          "internalType": "uint256",
          "name": "_pid",
          "type": "uint256"
        }
      ],
      "name": "updatePool",
      "outputs": [],
      "stateMutability": "nonpayable",
      "type": "function"
    },
    {
      "inputs": [
        {
          "internalType": "uint256",
          "name": "",
          "type": "uint256"
        },
        {
          "internalType": "address",
          "name": "",
          "type": "address"
        }
      ],
      "name": "userPoolInfo",
      "outputs": [
        {
          "internalType": "uint256",
          "name": "amount",
          "type": "uint256"
        },
        {
          "internalType": "uint256",
          "name": "accruedReward",
          "type": "uint256"
        }
      ],
      "stateMutability": "view",
      "type": "function"
    },
    {
      "inputs": [
        {
          "internalType": "uint256",
          "name": "_pid",
          "type": "uint256"
        },
        {
          "internalType": "uint256",
          "name": "_amount",
          "type": "uint256"
        }
      ],
      "name": "withdraw",
      "outputs": [],
      "stateMutability": "nonpayable",
      "type": "function"
    },
    {
      "inputs": [
        {
          "internalType": "uint256",
          "name": "_pid",
          "type": "uint256"
        }
      ],
      "name": "withdrawEmergency",
      "outputs": [],
      "stateMutability": "nonpayable",
      "type": "function"
    }
  ],
  "bytecode": "0x60806040526000600c553480156200001657600080fd5b50604051620031fa380380620031fa833981016040819052620000399162000117565b60006200004562000113565b600080546001600160a01b0319166001600160a01b0383169081178255604051929350917f8be0079c531659141344cd1fd0a4f28419497f9722a3daafe3b4186f6b6457e0908290a350600180546001600160a01b038088166001600160a01b03199283161790925560028054928716929091169190911790556003839055600d829055600e8190556040517f5d7c78d0ee3ce6196f90e74ed58c0ada9ac7ccc47d3aca0547ac893776f0382690620001009085906200016e565b60405180910390a1505050505062000190565b3390565b600080600080600060a086880312156200012f578081fd5b85516200013c8162000177565b60208701519095506200014f8162000177565b6040870151606088015160809098015196999198509695945092505050565b90815260200190565b6001600160a01b03811681146200018d57600080fd5b50565b61305a80620001a06000396000f3fe608060405234801561001057600080fd5b506004361061025c5760003560e01c8063614678df11610145578063bd834345116100bd578063ecef9b081161008c578063f3f14ed011610071578063f3f14ed0146104a4578063f525cb68146104b7578063f7c618c1146104bf5761025c565b8063ecef9b0814610489578063f2fde38b146104915761025c565b8063bd8343451461043b578063c59b1f3c1461044e578063d88ff1f414610461578063e2bbb158146104765761025c565b80638ae39cac11610114578063a36532b2116100f9578063a36532b214610400578063b969c21214610420578063bb872b4a146104285761025c565b80638ae39cac146103f05780638da5cb5b146103f85761025c565b8063614678df146103c5578063630b5ba1146103d8578063715018a6146103e05780637cd07e47146103e85761025c565b8063454b0608116101d85780634b44c239116101a75780634e71d92d1161018c5780634e71d92d1461039557806351eb05a61461039d5780635630e903146103b05761025c565b80634b44c2391461036f5780634e27072a146103825761025c565b8063454b0608146103205780634573616d1461033357806348cd4cb11461035457806349ccd0d11461035c5761025c565b80631526fe271161022f5780631eaaa045116102145780631eaaa045146102e757806323cf3118146102fa578063441a3e701461030d5761025c565b80631526fe27146102bc57806317caf6f1146102df5761025c565b8063068019f8146102615780630700037d14610276578063083c63231461029f578063151e6aa5146102a7575b600080fd5b61027461026f366004612b66565b6104c7565b005b610289610284366004612aa9565b610573565b6040516102969190612f10565b60405180910390f35b610289610585565b6102af61058b565b6040516102969190612c54565b6102cf6102ca366004612b66565b6105a7565b6040516102969493929190612d93565b6102896105f8565b6102746102f5366004612bc5565b6105fe565b610274610308366004612aa9565b61088c565b61027461031b366004612c06565b6109a3565b61027461032e366004612b66565b610b52565b610346610341366004612b66565b610ea4565b604051610296929190612f19565b610289610ed2565b61027461036a366004612ac5565b610ed8565b61027461037d366004612c27565b611061565b610346610390366004612b96565b6111e5565b610274611209565b6102746103ab366004612b66565b611388565b6103b86115b8565b6040516102969190612d46565b6102896103d3366004612b66565b61162b565b6102746116b6565b6102746116d9565b6102af6117f0565b61028961180c565b6102af611812565b61041361040e366004612aa9565b61182e565b6040516102969190612d88565b6102896118b4565b610274610436366004612b66565b6118ba565b610289610449366004612aa9565b6119a2565b61034661045c366004612b96565b6119b4565b610469611bd6565b6040516102969190612ccc565b610274610484366004612c06565b611c64565b610289611d6b565b61027461049f366004612aa9565b611d71565b6102896104b2366004612aa9565b611f12565b610289611f24565b6102af611f2a565b6000600982815481106104d657fe5b60009182526020808320858452600b825260408085203380875293529093208054600490930290930180549094506105289273ffffffffffffffffffffffffffffffffffffffff919091169190611f46565b8054604051849133917fb47853100b79d8afa66237bdb4f7f09d96628ee23aa8aac8a8c21a901c67ddb29161055c91612f10565b60405180910390a360008082556001909101555050565b60076020526000908152604090205481565b600e5481565b60025473ffffffffffffffffffffffffffffffffffffffff1681565b600981815481106105b757600080fd5b6000918252602090912060049091020180546001820154600283015460039093015473ffffffffffffffffffffffffffffffffffffffff9092169350919084565b600c5481565b610606611fd8565b73ffffffffffffffffffffffffffffffffffffffff16610624611812565b73ffffffffffffffffffffffffffffffffffffffff16146106a657604080517f08c379a000000000000000000000000000000000000000000000000000000000815260206004820181905260248201527f4f776e61626c653a2063616c6c6572206973206e6f7420746865206f776e6572604482015290519081900360640190fd5b6106af8261182e565b156106ef576040517f08c379a00000000000000000000000000000000000000000000000000000000081526004016106e690612dc6565b60405180910390fd5b80156106fd576106fd6116b6565b6000600d54431161071057600d54610712565b435b600c549091506107229085611fdc565b600c55600980546040805160808101825273ffffffffffffffffffffffffffffffffffffffff878116808352600060208085018281528587018d8152606087018b815260018a018b5599845295517f6e1540171b6c0c960b71a7020d9f60077f6af931a8bbf590da0223dacf75c7af60048a0290810180547fffffffffffffffffffffffff0000000000000000000000000000000000000000169290971691909117909555517f6e1540171b6c0c960b71a7020d9f60077f6af931a8bbf590da0223dacf75c7b085015593517f6e1540171b6c0c960b71a7020d9f60077f6af931a8bbf590da0223dacf75c7b184015595517f6e1540171b6c0c960b71a7020d9f60077f6af931a8bbf590da0223dacf75c7b290920191909155808552600a9091529281902082905551909182917fa818a22273fc309f0a3682b642c74c5b5c25c0615ff378d07767cd231e19fffc9061087d908990612f10565b60405180910390a35050505050565b610894611fd8565b73ffffffffffffffffffffffffffffffffffffffff166108b2611812565b73ffffffffffffffffffffffffffffffffffffffff161461093457604080517f08c379a000000000000000000000000000000000000000000000000000000000815260206004820181905260248201527f4f776e61626c653a2063616c6c6572206973206e6f7420746865206f776e6572604482015290519081900360640190fd5b600480547fffffffffffffffffffffffff00000000000000000000000000000000000000001673ffffffffffffffffffffffffffffffffffffffff83169081179091556040517f3ba4758949febc607e14523620298f8b5995b1848492ad7aa083372ac886ae0790600090a250565b6000828152600b602090815260408083203384529091529020548111156109f6576040517f08c379a00000000000000000000000000000000000000000000000000000000081526004016106e690612dfd565b6109ff82611388565b610a0882612059565b6000828152600b6020908152604080832033845290915290208115610a7b578054610a339083612139565b8160000181905550610a7b338360098681548110610a4d57fe5b600091825260209091206004909102015473ffffffffffffffffffffffffffffffffffffffff169190611f46565b610b0c60098481548110610a8b57fe5b60009182526020808320604080516080810182526004909402909101805473ffffffffffffffffffffffffffffffffffffffff168452600180820154858501526002820154858401526003909101546060850152888552600b83528185203386528352938190208151808301909252805482529093015490830152906121b0565b6001820155604051839033907f92ccf450a286a957af52509bc1c9939d1a6a481783e142e41e2499f0bb66ebc690610b45908690612f10565b60405180910390a3505050565b60045473ffffffffffffffffffffffffffffffffffffffff16610ba1576040517f08c379a00000000000000000000000000000000000000000000000000000000081526004016106e690612ed9565b600060098281548110610bb057fe5b60009182526020822060049182020180546040517f70a0823100000000000000000000000000000000000000000000000000000000815291945073ffffffffffffffffffffffffffffffffffffffff16929183916370a0823191610c1691309101612c54565b60206040518083038186803b158015610c2e57600080fd5b505afa158015610c42573d6000803e3d6000fd5b505050506040513d601f19601f82011682018060405250810190610c669190612b7e565b600454909150610c909073ffffffffffffffffffffffffffffffffffffffff8481169116836121d6565b600480546040517fce5494bb00000000000000000000000000000000000000000000000000000000815260009273ffffffffffffffffffffffffffffffffffffffff9092169163ce5494bb91610ce891879101612c54565b602060405180830381600087803b158015610d0257600080fd5b505af1158015610d16573d6000803e3d6000fd5b505050506040513d601f19601f82011682018060405250810190610d3a9190612b4a565b6040517f70a0823100000000000000000000000000000000000000000000000000000000815290915073ffffffffffffffffffffffffffffffffffffffff8216906370a0823190610d8f903090600401612c54565b60206040518083038186803b158015610da757600080fd5b505afa158015610dbb573d6000803e3d6000fd5b505050506040513d601f19601f82011682018060405250810190610ddf9190612b7e565b8214610e17576040517f08c379a00000000000000000000000000000000000000000000000000000000081526004016106e690612ea2565b83547fffffffffffffffffffffffff00000000000000000000000000000000000000001673ffffffffffffffffffffffffffffffffffffffff828116918217865584166000818152600a602052604080822082905583825280822089905551889392917f39a54d7a71ca31798e3d96be34be0322c214765144b2b52e142d763c6c7b86b491a45050505050565b60058181548110610eb457600080fd5b60009182526020909120600290910201805460019091015490915082565b600d5481565b610ee0611fd8565b73ffffffffffffffffffffffffffffffffffffffff16610efe611812565b73ffffffffffffffffffffffffffffffffffffffff1614610f8057604080517f08c379a000000000000000000000000000000000000000000000000000000000815260206004820181905260248201527f4f776e61626c653a2063616c6c6572206973206e6f7420746865206f776e6572604482015290519081900360640190fd5b828114610fb9576040517f08c379a00000000000000000000000000000000000000000000000000000000081526004016106e690612e34565b60005b8381101561105a5760056040518060400160405280878785818110610fdd57fe5b905060200201358152602001858585818110610ff557fe5b60209081029290920135909252835460018181018655600095865294829020845160029092020190815592015191909201555061104f83838381811061103757fe5b90506020020135600654611fdc90919063ffffffff16565b600655600101610fbc565b5050505050565b611069611fd8565b73ffffffffffffffffffffffffffffffffffffffff16611087611812565b73ffffffffffffffffffffffffffffffffffffffff161461110957604080517f08c379a000000000000000000000000000000000000000000000000000000000815260206004820181905260248201527f4f776e61626c653a2063616c6c6572206973206e6f7420746865206f776e6572604482015290519081900360640190fd5b8015611117576111176116b6565b6111548261114e6009868154811061112b57fe5b906000526020600020906004020160020154600c5461213990919063ffffffff16565b90611fdc565b600c81905550816009848154811061116857fe5b906000526020600020906004020160020181905550826009848154811061118b57fe5b600091825260209091206004909102015460405173ffffffffffffffffffffffffffffffffffffffff909116907fe32538ed313fbe58b972973266ab7dcc8ea474878de0deaeb3cf28d0a168a7e090610b45908690612f10565b600b6020908152600092835260408084209091529082529020805460019091015482565b6000600e5443116112dd575060005b6009548110156112dd5761122b81611388565b61123481612059565b6000818152600b602090815260408083203384529091529020600980546112d191908490811061126057fe5b6000918252602091829020604080516080810182526004909302909101805473ffffffffffffffffffffffffffffffffffffffff16835260018082015484860152600282015484840152600390910154606084015281518083019092528554825285015492810192909252906121b0565b60019182015501611218565b33600090815260086020908152604080832054600790925282205461130c91906113069061162b565b90612139565b9050801561131e5761131e3382612364565b336000908152600860205260409020546113389082611fdc565b33600081815260086020526040908190209290925590517fd8138f8a3f377c5259ca548e70e4c2de94f129f5a11036a15b69513cba2b426a9061137c908490612f10565b60405180910390a25050565b60006009828154811061139757fe5b906000526020600020906004020190506000439050600e548111156113bb5750600e545b816003015481116113cd5750506115b5565b81546040517f70a0823100000000000000000000000000000000000000000000000000000000815260009173ffffffffffffffffffffffffffffffffffffffff16906370a0823190611423903090600401612c54565b60206040518083038186803b15801561143b57600080fd5b505afa15801561144f573d6000803e3d6000fd5b505050506040513d601f19601f820116820180604052508101906114739190612b7e565b90508061148657506003909101556115b5565b600061149f84600301548461213990919063ffffffff16565b905060006114d2600c546114cc87600201546114c66003548761257590919063ffffffff16565b90612575565b906125e8565b6001546002546040517f23b872dd00000000000000000000000000000000000000000000000000000000815292935073ffffffffffffffffffffffffffffffffffffffff918216926323b872dd9261153292169030908690600401612c75565b602060405180830381600087803b15801561154c57600080fd5b505af1158015611560573d6000803e3d6000fd5b505050506040513d601f19601f820116820180604052508101906115849190612b2e565b506115a661159b846114cc8464e8d4a51000612575565b600187015490611fdc565b60018601555050506003909101555b50565b60606005805480602002602001604051908101604052809291908181526020016000905b82821015611622578382906000526020600020906002020160405180604001604052908160008201548152602001600182015481525050815260200190600101906115dc565b50505050905090565b6000805b6005548110156116b0576005818154811061164657fe5b906000526020600020906002020160000154431015611664576116a8565b6116a561169e6006546114cc6005858154811061167d57fe5b9060005260206000209060020201600101548761257590919063ffffffff16565b8390611fdc565b91505b60010161162f565b50919050565b60095460005b818110156116d5576116cd81611388565b6001016116bc565b5050565b6116e1611fd8565b73ffffffffffffffffffffffffffffffffffffffff166116ff611812565b73ffffffffffffffffffffffffffffffffffffffff161461178157604080517f08c379a000000000000000000000000000000000000000000000000000000000815260206004820181905260248201527f4f776e61626c653a2063616c6c6572206973206e6f7420746865206f776e6572604482015290519081900360640190fd5b6000805460405173ffffffffffffffffffffffffffffffffffffffff909116907f8be0079c531659141344cd1fd0a4f28419497f9722a3daafe3b4186f6b6457e0908390a3600080547fffffffffffffffffffffffff0000000000000000000000000000000000000000169055565b60045473ffffffffffffffffffffffffffffffffffffffff1681565b60035481565b60005473ffffffffffffffffffffffffffffffffffffffff1690565b73ffffffffffffffffffffffffffffffffffffffff81166000908152600a6020526040812054600954811080156118ad57508273ffffffffffffffffffffffffffffffffffffffff166009828154811061188457fe5b600091825260209091206004909102015473ffffffffffffffffffffffffffffffffffffffff16145b9392505050565b60065481565b6118c2611fd8565b73ffffffffffffffffffffffffffffffffffffffff166118e0611812565b73ffffffffffffffffffffffffffffffffffffffff161461196257604080517f08c379a000000000000000000000000000000000000000000000000000000000815260206004820181905260248201527f4f776e61626c653a2063616c6c6572206973206e6f7420746865206f776e6572604482015290519081900360640190fd5b60038190556040517f5d7c78d0ee3ce6196f90e74ed58c0ada9ac7ccc47d3aca0547ac893776f0382690611997908390612f10565b60405180910390a150565b60086020526000908152604090205481565b6000806000600985815481106119c657fe5b6000918252602091829020604080516080810182526004909302909101805473ffffffffffffffffffffffffffffffffffffffff1683526001810154938301939093526002830154908201526003909101546060820152600e549091504390811115611a315750600e545b81516040517f70a0823100000000000000000000000000000000000000000000000000000000815260009173ffffffffffffffffffffffffffffffffffffffff16906370a0823190611a87903090600401612c54565b60206040518083038186803b158015611a9f57600080fd5b505afa158015611ab3573d6000803e3d6000fd5b505050506040513d601f19601f82011682018060405250810190611ad79190612b7e565b905080611aed5760008094509450505050611bcf565b6000611b0684606001518461213990919063ffffffff16565b90506000611b2d600c546114cc87604001516114c66003548761257590919063ffffffff16565b90506000611b52611b47856114cc8564e8d4a51000612575565b602088015190611fdc565b60008b8152600b6020908152604080832073ffffffffffffffffffffffffffffffffffffffff8e168452825291829020825180840190935280548084526001909101549183018290529293509091611bba91906113069064e8d4a51000906114cc9087612575565b9850611bc58961162b565b9750505050505050505b9250929050565b60606009805480602002602001604051908101604052809291908181526020016000905b828210156116225760008481526020908190206040805160808101825260048602909201805473ffffffffffffffffffffffffffffffffffffffff168352600180820154848601526002820154928401929092526003015460608301529083529092019101611bfa565b600e54431115611ca0576040517f08c379a00000000000000000000000000000000000000000000000000000000081526004016106e690612e6b565b611ca982611388565b611cb282612059565b6000828152600b6020908152604080832033845290915290208115611d2257611d1333308460098781548110611ce457fe5b600091825260209091206004909102015473ffffffffffffffffffffffffffffffffffffffff16929190612669565b8054611d1f9083611fdc565b81555b611d3260098481548110610a8b57fe5b6001820155604051839033907f73a19dd210f1a7f902193214c0ee91dd35ee5b4d920cba8d519eca65a7b488ca90610b45908690612f10565b60055490565b611d79611fd8565b73ffffffffffffffffffffffffffffffffffffffff16611d97611812565b73ffffffffffffffffffffffffffffffffffffffff1614611e1957604080517f08c379a000000000000000000000000000000000000000000000000000000000815260206004820181905260248201527f4f776e61626c653a2063616c6c6572206973206e6f7420746865206f776e6572604482015290519081900360640190fd5b73ffffffffffffffffffffffffffffffffffffffff8116611e85576040517f08c379a0000000000000000000000000000000000000000000000000000000008152600401808060200182810382526026815260200180612f586026913960400191505060405180910390fd5b6000805460405173ffffffffffffffffffffffffffffffffffffffff808516939216917f8be0079c531659141344cd1fd0a4f28419497f9722a3daafe3b4186f6b6457e091a3600080547fffffffffffffffffffffffff00000000000000000000000000000000000000001673ffffffffffffffffffffffffffffffffffffffff92909216919091179055565b600a6020526000908152604090205481565b60095490565b60015473ffffffffffffffffffffffffffffffffffffffff1681565b6040805173ffffffffffffffffffffffffffffffffffffffff8416602482015260448082018490528251808303909101815260649091019091526020810180517bffffffffffffffffffffffffffffffffffffffffffffffffffffffff167fa9059cbb00000000000000000000000000000000000000000000000000000000179052611fd39084906126fa565b505050565b3390565b60008282018381101561205057604080517f08c379a000000000000000000000000000000000000000000000000000000000815260206004820152601b60248201527f536166654d6174683a206164646974696f6e206f766572666c6f770000000000604482015290519081900360640190fd5b90505b92915050565b6000818152600b60209081526040808320338452825291829020825180840190935280548084526001909101549183019190915261209757506115b5565b61212561210f8260200151611306600986815481106120b257fe5b6000918252602091829020604080516080810182526004909302909101805473ffffffffffffffffffffffffffffffffffffffff1683526001810154938301939093526002830154908201526003909101546060820152856121b0565b3360009081526007602052604090205490611fdc565b336000908152600760205260409020555050565b6000828211156121aa57604080517f08c379a000000000000000000000000000000000000000000000000000000000815260206004820152601e60248201527f536166654d6174683a207375627472616374696f6e206f766572666c6f770000604482015290519081900360640190fd5b50900390565b600061205064e8d4a510006114cc8560200151856000015161257590919063ffffffff16565b8015806122825750604080517fdd62ed3e00000000000000000000000000000000000000000000000000000000815230600482015273ffffffffffffffffffffffffffffffffffffffff848116602483015291519185169163dd62ed3e91604480820192602092909190829003018186803b15801561225457600080fd5b505afa158015612268573d6000803e3d6000fd5b505050506040513d602081101561227e57600080fd5b5051155b6122d7576040517f08c379a0000000000000000000000000000000000000000000000000000000008152600401808060200182810382526036815260200180612fef6036913960400191505060405180910390fd5b6040805173ffffffffffffffffffffffffffffffffffffffff8416602482015260448082018490528251808303909101815260649091019091526020810180517bffffffffffffffffffffffffffffffffffffffffffffffffffffffff167f095ea7b300000000000000000000000000000000000000000000000000000000179052611fd39084906126fa565b6001546040517f70a0823100000000000000000000000000000000000000000000000000000000815260009173ffffffffffffffffffffffffffffffffffffffff16906370a08231906123bb903090600401612c54565b60206040518083038186803b1580156123d357600080fd5b505afa1580156123e7573d6000803e3d6000fd5b505050506040513d601f19601f8201168201806040525081019061240b9190612b7e565b9050808211156124c5576001546040517fa9059cbb00000000000000000000000000000000000000000000000000000000815273ffffffffffffffffffffffffffffffffffffffff9091169063a9059cbb9061246d9086908590600401612ca6565b602060405180830381600087803b15801561248757600080fd5b505af115801561249b573d6000803e3d6000fd5b505050506040513d601f19601f820116820180604052508101906124bf9190612b2e565b50611fd3565b6001546040517fa9059cbb00000000000000000000000000000000000000000000000000000000815273ffffffffffffffffffffffffffffffffffffffff9091169063a9059cbb9061251d9086908690600401612ca6565b602060405180830381600087803b15801561253757600080fd5b505af115801561254b573d6000803e3d6000fd5b505050506040513d601f19601f8201168201806040525081019061256f9190612b2e565b50505050565b60008261258457506000612053565b8282028284828161259157fe5b0414612050576040517f08c379a0000000000000000000000000000000000000000000000000000000008152600401808060200182810382526021815260200180612fa46021913960400191505060405180910390fd5b600080821161265857604080517f08c379a000000000000000000000000000000000000000000000000000000000815260206004820152601a60248201527f536166654d6174683a206469766973696f6e206279207a65726f000000000000604482015290519081900360640190fd5b81838161266157fe5b049392505050565b6040805173ffffffffffffffffffffffffffffffffffffffff80861660248301528416604482015260648082018490528251808303909101815260849091019091526020810180517bffffffffffffffffffffffffffffffffffffffffffffffffffffffff167f23b872dd0000000000000000000000000000000000000000000000000000000017905261256f9085905b600061275c826040518060400160405280602081526020017f5361666545524332303a206c6f772d6c6576656c2063616c6c206661696c65648152508573ffffffffffffffffffffffffffffffffffffffff166127d29092919063ffffffff16565b805190915015611fd35780806020019051602081101561277b57600080fd5b5051611fd3576040517f08c379a000000000000000000000000000000000000000000000000000000000815260040180806020018281038252602a815260200180612fc5602a913960400191505060405180910390fd5b60606127e184846000856127e9565b949350505050565b606082471015612844576040517f08c379a0000000000000000000000000000000000000000000000000000000008152600401808060200182810382526026815260200180612f7e6026913960400191505060405180910390fd5b61284d856129a3565b6128b857604080517f08c379a000000000000000000000000000000000000000000000000000000000815260206004820152601d60248201527f416464726573733a2063616c6c20746f206e6f6e2d636f6e7472616374000000604482015290519081900360640190fd5b6000808673ffffffffffffffffffffffffffffffffffffffff1685876040518082805190602001908083835b6020831061292157805182527fffffffffffffffffffffffffffffffffffffffffffffffffffffffffffffffe090920191602091820191016128e4565b6001836020036101000a03801982511681845116808217855250505050505090500191505060006040518083038185875af1925050503d8060008114612983576040519150601f19603f3d011682016040523d82523d6000602084013e612988565b606091505b50915091506129988282866129a9565b979650505050505050565b3b151590565b606083156129b85750816118ad565b8251156129c85782518084602001fd5b816040517f08c379a00000000000000000000000000000000000000000000000000000000081526004018080602001828103825283818151815260200191508051906020019080838360005b83811015612a2c578181015183820152602001612a14565b50505050905090810190601f168015612a595780820380516001836020036101000a031916815260200191505b509250505060405180910390fd5b60008083601f840112612a78578182fd5b50813567ffffffffffffffff811115612a8f578182fd5b6020830191508360208083028501011115611bcf57600080fd5b600060208284031215612aba578081fd5b813561205081612f27565b60008060008060408587031215612ada578283fd5b843567ffffffffffffffff80821115612af1578485fd5b612afd88838901612a67565b90965094506020870135915080821115612b15578384fd5b50612b2287828801612a67565b95989497509550505050565b600060208284031215612b3f578081fd5b815161205081612f49565b600060208284031215612b5b578081fd5b815161205081612f27565b600060208284031215612b77578081fd5b5035919050565b600060208284031215612b8f578081fd5b5051919050565b60008060408385031215612ba8578182fd5b823591506020830135612bba81612f27565b809150509250929050565b600080600060608486031215612bd9578283fd5b833592506020840135612beb81612f27565b91506040840135612bfb81612f49565b809150509250925092565b60008060408385031215612c18578182fd5b50508035926020909101359150565b600080600060608486031215612c3b578283fd5b83359250602084013591506040840135612bfb81612f49565b73ffffffffffffffffffffffffffffffffffffffff91909116815260200190565b73ffffffffffffffffffffffffffffffffffffffff9384168152919092166020820152604081019190915260600190565b73ffffffffffffffffffffffffffffffffffffffff929092168252602082015260400190565b602080825282518282018190526000919060409081850190868401855b82811015612d39578151805173ffffffffffffffffffffffffffffffffffffffff168552868101518786015285810151868601526060908101519085015260809093019290850190600101612ce9565b5091979650505050505050565b602080825282518282018190526000919060409081850190868401855b82811015612d3957815180518552860151868501529284019290850190600101612d63565b901515815260200190565b73ffffffffffffffffffffffffffffffffffffffff94909416845260208401929092526040830152606082015260800190565b60208082526018908201527f6164643a20746f6b656e20616c72656164792061646465640000000000000000604082015260600190565b6020808252601b908201527f77697468647261773a206e6f7420656e6f75676820616d6f756e740000000000604082015260600190565b60208082526015908201527f53686f756c642062652073616d65206c656e6774680000000000000000000000604082015260600190565b60208082526014908201527f4c50206d696e696e672068617320656e6465642e000000000000000000000000604082015260600190565b6020808252600c908201527f6d6967726174653a206261640000000000000000000000000000000000000000604082015260600190565b60208082526014908201527f6d6967726174653a206e6f206d69677261746f72000000000000000000000000604082015260600190565b90815260200190565b918252602082015260400190565b73ffffffffffffffffffffffffffffffffffffffff811681146115b557600080fd5b80151581146115b557600080fdfe4f776e61626c653a206e6577206f776e657220697320746865207a65726f2061646472657373416464726573733a20696e73756666696369656e742062616c616e636520666f722063616c6c536166654d6174683a206d756c7469706c69636174696f6e206f766572666c6f775361666545524332303a204552433230206f7065726174696f6e20646964206e6f7420737563636565645361666545524332303a20617070726f76652066726f6d206e6f6e2d7a65726f20746f206e6f6e2d7a65726f20616c6c6f77616e6365a2646970667358221220e4cc1d9c135822bd995162966ff2fa4c6e37b0179c6e5eeae7f7827df004bfbf64736f6c63430007060033",
  "linkReferences": {},
  "deployedLinkReferences": {}
}